:020000001A28BC
:10000800803120007F08F900911E162823009D1CCE
:1000180015281D121908FF39F8007808FA001D166E
:100028001628A12079082000FF0009001B28FA01E2
:10003800FB01FC01A001A101A201A301A401A501EA
:10004800A601A701A801A9012000C828F20072088A
:10005800023E86008701403FF000413FF1003E210B
:100068007208043E86008701403FF000413FF100DE
:1000780045217208063E86008701403FF000413F57
:10008800F1004C217208860087010030C03FC13F53
:100098007208023E860087010030C03FC13F7208E7
:1000A800043E860087010030C03FC13F7208063E0B
:1000B800860087010030C03FC13F7208083E8600B5
:1000C80087010030C03FC13F080022001D149D1465
:1000D8003B009B171B17F3309B051B12AB172B1705
:1000E800F330AB052B12BB173B17F330BB053B12A4
:1000F8008F309E05FC309E058F30AE05FC30AE0576
:100108008F30BE05FC30BE05FF309600FF309500ED
:10011800FF309400FF309300FF30A600FF30A500A9
:10012800FF30A400FF30A300FF30B600FF30B50059
:10013800FF30B400FF30B300080023001908FF396E
:10014800F6007608FA0004307B020318C4287A08FF
:10015800F600F7017608F0007708F1000130F200A8
:100168000130F300E6207B35203E860087017008C9
:10017800C03F7108C13F0130F6007608FB07080050
:1001880020302A20FB01080034210321FF302200FF
:100198008C00692058215321FF3022008C00003048
:1001A8002000AA000030AB002A2100302000AA005D
:1001B8000030AB00202100302000AA000030AB0046
:1001C8001621E528F401F501701CEE287208F407E1
:1001D8007308F53D0130F235F30D890BEF28013036
:1001E800F136F00C890BF42871087004031DE82817
:1001F8007508F101F1077408F001F0070800210003
:100208008C140C10013023009C00A0309B001D169C
:100218009D179F151E121E159E16210091168B17ED
:100228000B17080020002B083B00920020002A082A
:100238003B0091009F17080020002B083B00A200FC
:1002480020002A083B00A100AF17080020002B0857
:100258003B00B20020002A083B00B100BF1708008D
:100268007A30210099008C0123008C01FF30220094
:100278008C00080071083B009200700891009F17DD
:10028800080071083B00A2007008A100AF17080021
:1002980071083B00B2007008B100BF1708003B00AE
:1002A8001B172B173B1708003B001B132B133B1383
:0202B80008003C
:020000040001F9
:04000E00A4F9FFFE54
:00000001FF
